{
  "contractName": "CourierManager",
  "abi": [
    {
      "anonymous": false,
      "inputs": [
        {
          "indexed": false,
          "internalType": "uint256",
          "name": "id",
          "type": "uint256"
        },
        {
          "indexed": false,
          "internalType": "string",
          "name": "title",
          "type": "string"
        },
        {
          "indexed": false,
          "internalType": "string",
          "name": "description",
          "type": "string"
        },
        {
          "indexed": false,
          "internalType": "string",
          "name": "category",
          "type": "string"
        },
        {
          "indexed": false,
          "internalType": "string",
          "name": "location",
          "type": "string"
        },
        {
          "indexed": false,
          "internalType": "uint256",
          "name": "quantity",
          "type": "uint256"
        },
        {
          "indexed": false,
          "internalType": "address",
          "name": "courier",
          "type": "address"
        }
      ],
      "name": "CourierAdded",
      "type": "event"
    },
    {
      "anonymous": false,
      "inputs": [
        {
          "indexed": false,
          "internalType": "uint256",
          "name": "id",
          "type": "uint256"
        }
      ],
      "name": "CourierRemoved",
      "type": "event"
    },
    {
      "constant": true,
      "inputs": [
        {
          "internalType": "uint256",
          "name": "",
          "type": "uint256"
        }
      ],
      "name": "categories",
      "outputs": [
        {
          "internalType": "string",
          "name": "",
          "type": "string"
        }
      ],
      "payable": false,
      "stateMutability": "view",
      "type": "function"
    },
    {
      "constant": true,
      "inputs": [
        {
          "internalType": "uint256",
          "name": "",
          "type": "uint256"
        }
      ],
      "name": "descriptions",
      "outputs": [
        {
          "internalType": "string",
          "name": "",
          "type": "string"
        }
      ],
      "payable": false,
      "stateMutability": "view",
      "type": "function"
    },
    {
      "constant": true,
      "inputs": [
        {
          "internalType": "uint256",
          "name": "",
          "type": "uint256"
        }
      ],
      "name": "locations",
      "outputs": [
        {
          "internalType": "string",
          "name": "",
          "type": "string"
        }
      ],
      "payable": false,
      "stateMutability": "view",
      "type": "function"
    },
    {
      "constant": true,
      "inputs": [
        {
          "internalType": "uint256",
          "name": "",
          "type": "uint256"
        }
      ],
      "name": "owners",
      "outputs": [
        {
          "internalType": "address",
          "name": "",
          "type": "address"
        }
      ],
      "payable": false,
      "stateMutability": "view",
      "type": "function"
    },
    {
      "constant": true,
      "inputs": [
        {
          "internalType": "uint256",
          "name": "",
          "type": "uint256"
        }
      ],
      "name": "quantities",
      "outputs": [
        {
          "internalType": "uint256",
          "name": "",
          "type": "uint256"
        }
      ],
      "payable": false,
      "stateMutability": "view",
      "type": "function"
    },
    {
      "constant": true,
      "inputs": [
        {
          "internalType": "uint256",
          "name": "",
          "type": "uint256"
        }
      ],
      "name": "titles",
      "outputs": [
        {
          "internalType": "string",
          "name": "",
          "type": "string"
        }
      ],
      "payable": false,
      "stateMutability": "view",
      "type": "function"
    },
    {
      "constant": false,
      "inputs": [
        {
          "internalType": "string",
          "name": "_title",
          "type": "string"
        },
        {
          "internalType": "string",
          "name": "_description",
          "type": "string"
        },
        {
          "internalType": "string",
          "name": "_category",
          "type": "string"
        },
        {
          "internalType": "string",
          "name": "_location",
          "type": "string"
        },
        {
          "internalType": "uint256",
          "name": "_quantity",
          "type": "uint256"
        }
      ],
      "name": "addCourier",
      "outputs": [
        {
          "internalType": "uint256",
          "name": "",
          "type": "uint256"
        }
      ],
      "payable": false,
      "stateMutability": "nonpayable",
      "type": "function"
    },
    {
      "constant": false,
      "inputs": [
        {
          "internalType": "uint256",
          "name": "_id",
          "type": "uint256"
        }
      ],
      "name": "removeCourier",
      "outputs": [],
      "payable": false,
      "stateMutability": "nonpayable",
      "type": "function"
    },
    {
      "constant": true,
      "inputs": [],
      "name": "getAddresses",
      "outputs": [
        {
          "internalType": "address[100]",
          "name": "",
          "type": "address[100]"
        }
      ],
      "payable": false,
      "stateMutability": "view",
      "type": "function"
    },
    {
      "constant": true,
      "inputs": [
        {
          "internalType": "uint256",
          "name": "_id",
          "type": "uint256"
        }
      ],
      "name": "getAddress",
      "outputs": [
        {
          "internalType": "address",
          "name": "",
          "type": "address"
        }
      ],
      "payable": false,
      "stateMutability": "view",
      "type": "function"
    },
    {
      "constant": true,
      "inputs": [
        {
          "internalType": "uint256",
          "name": "_id",
          "type": "uint256"
        }
      ],
      "name": "getTitle",
      "outputs": [
        {
          "internalType": "string",
          "name": "",
          "type": "string"
        }
      ],
      "payable": false,
      "stateMutability": "view",
      "type": "function"
    },
    {
      "constant": true,
      "inputs": [
        {
          "internalType": "uint256",
          "name": "_id",
          "type": "uint256"
        }
      ],
      "name": "getDescription",
      "outputs": [
        {
          "internalType": "string",
          "name": "",
          "type": "string"
        }
      ],
      "payable": false,
      "stateMutability": "view",
      "type": "function"
    },
    {
      "constant": true,
      "inputs": [
        {
          "internalType": "uint256",
          "name": "_id",
          "type": "uint256"
        }
      ],
      "name": "getCategory",
      "outputs": [
        {
          "internalType": "string",
          "name": "",
          "type": "string"
        }
      ],
      "payable": false,
      "stateMutability": "view",
      "type": "function"
    },
    {
      "constant": true,
      "inputs": [
        {
          "internalType": "uint256",
          "name": "_id",
          "type": "uint256"
        }
      ],
      "name": "getLocation",
      "outputs": [
        {
          "internalType": "string",
          "name": "",
          "type": "string"
        }
      ],
      "payable": false,
      "stateMutability": "view",
      "type": "function"
    },
    {
      "constant": true,
      "inputs": [
        {
          "internalType": "uint256",
          "name": "_id",
          "type": "uint256"
        }
      ],
      "name": "getQuantity",
      "outputs": [
        {
          "internalType": "uint256",
          "name": "",
          "type": "uint256"
        }
      ],
      "payable": false,
      "stateMutability": "view",
      "type": "function"
    },
    {
      "constant": true,
      "inputs": [
        {
          "internalType": "uint256",
          "name": "_id",
          "type": "uint256"
        }
      ],
      "name": "getCourier",
      "outputs": [
        {
          "internalType": "address",
          "name": "",
          "type": "address"
        },
        {
          "internalType": "string",
          "name": "",
          "type": "string"
        },
        {
          "internalType": "string",
          "name": "",
          "type": "string"
        },
        {
          "internalType": "string",
          "name": "",
          "type": "string"
        },
        {
          "internalType": "string",
          "name": "",
          "type": "string"
        },
        {
          "internalType": "uint256",
          "name": "",
          "type": "uint256"
        }
      ],
      "payable": false,
      "stateMutability": "view",
      "type": "function"
    }
  ],
  "bytecode": "0x608060405234801561001057600080fd5b50612196806100206000396000f3fe608060405234801561001057600080fd5b50600436106101005760003560e01c8063a3ea706d11610097578063c6cdbe5e11610066578063c6cdbe5e14610ab1578063e39febfd14610b58578063e6f859e714610b86578063f3052d2614610c2d57610100565b8063a3ea706d14610735578063a41254031461095a578063b93f9b0a1461099c578063b9e0db3514610a0a57610100565b80635ebd9ded116100d35780635ebd9ded1461055f5780637f7b1393146105a1578063929a79b114610648578063a39fac12146106ef57610100565b8063025e7c27146101055780632cda1bf71461017357806336f5c60a1461021a5780634925ec55146104b8575b600080fd5b6101316004803603602081101561011b57600080fd5b8101908080359060200190929190505050610cd4565b604051808273ffffffffffffffffffffffffffffffffffffffff1673ffffffffffffffffffffffffffffffffffffffff16815260200191505060405180910390f35b61019f6004803603602081101561018957600080fd5b8101908080359060200190929190505050610d07565b6040518080602001828103825283818151815260200191508051906020019080838360005b838110156101df5780820151818401526020810190506101c4565b50505050905090810190601f16801561020c5780820380516001836020036101000a031916815260200191505b509250505060405180910390f35b6104a2600480360360a081101561023057600080fd5b810190808035906020019064010000000081111561024d57600080fd5b82018360208201111561025f57600080fd5b8035906020019184600183028401116401000000008311171561028157600080fd5b91908080601f016020809104026020016040519081016040528093929190818152602001838380828437600081840152601f19601f820116905080830192505050505050509192919290803590602001906401000000008111156102e457600080fd5b8201836020820111156102f657600080fd5b8035906020019184600183028401116401000000008311171561031857600080fd5b91908080601f016020809104026020016040519081016040528093929190818152602001838380828437600081840152601f19601f8201169050808301925050505050505091929192908035906020019064010000000081111561037b57600080fd5b82018360208201111561038d57600080fd5b803590602001918460018302840111640100000000831117156103af57600080fd5b91908080601f016020809104026020016040519081016040528093929190818152602001838380828437600081840152601f19601f8201169050808301925050505050505091929192908035906020019064010000000081111561041257600080fd5b82018360208201111561042457600080fd5b8035906020019184600183028401116401000000008311171561044657600080fd5b91908080601f016020809104026020016040519081016040528093929190818152602001838380828437600081840152601f19601f82011690508083019250505050505050919291929080359060200190929190505050610db7565b6040518082815260200191505060405180910390f35b6104e4600480360360208110156104ce57600080fd5b81019080803590602001909291905050506111b2565b6040518080602001828103825283818151815260200191508051906020019080838360005b83811015610524578082015181840152602081019050610509565b50505050905090810190601f1680156105515780820380516001836020036101000a031916815260200191505b509250505060405180910390f35b61058b6004803603602081101561057557600080fd5b81019080803590602001909291905050506112d8565b6040518082815260200191505060405180910390f35b6105cd600480360360208110156105b757600080fd5b8101908080359060200190929190505050611367565b6040518080602001828103825283818151815260200191508051906020019080838360005b8381101561060d5780820151818401526020810190506105f2565b50505050905090810190601f16801561063a5780820380516001836020036101000a031916815260200191505b509250505060405180910390f35b6106746004803603602081101561065e57600080fd5b810190808035906020019092919050505061148e565b6040518080602001828103825283818151815260200191508051906020019080838360005b838110156106b4578082015181840152602081019050610699565b50505050905090810190601f1680156106e15780820380516001836020036101000a031916815260200191505b509250505060405180910390f35b6106f76115b4565b6040518082606460200280838360005b83811015610722578082015181840152602081019050610707565b5050505090500191505060405180910390f35b6107616004803603602081101561074b57600080fd5b8101908080359060200190929190505050611635565b604051808773ffffffffffffffffffffffffffffffffffffffff1673ffffffffffffffffffffffffffffffffffffffff1681526020018060200180602001806020018060200186815260200185810385528a818151815260200191508051906020019080838360005b838110156107e55780820151818401526020810190506107ca565b50505050905090810190601f1680156108125780820380516001836020036101000a031916815260200191505b50858103845289818151815260200191508051906020019080838360005b8381101561084b578082015181840152602081019050610830565b50505050905090810190601f1680156108785780820380516001836020036101000a031916815260200191505b50858103835288818151815260200191508051906020019080838360005b838110156108b1578082015181840152602081019050610896565b50505050905090810190601f1680156108de5780820380516001836020036101000a031916815260200191505b50858103825287818151815260200191508051906020019080838360005b838110156109175780820151818401526020810190506108fc565b50505050905090810190601f1680156109445780820380516001836020036101000a031916815260200191505b509a505050505050505050505060405180910390f35b6109866004803603602081101561097057600080fd5b81019080803590602001909291905050506119b3565b6040518082815260200191505060405180910390f35b6109c8600480360360208110156109b257600080fd5b81019080803590602001909291905050506119cc565b604051808273ffffffffffffffffffffffffffffffffffffffff1673ffffffffffffffffffffffffffffffffffffffff16815260200191505060405180910390f35b610a3660048036036020811015610a2057600080fd5b8101908080359060200190929190505050611a7a565b6040518080602001828103825283818151815260200191508051906020019080838360005b83811015610a76578082015181840152602081019050610a5b565b50505050905090810190601f168015610aa35780820380516001836020036101000a031916815260200191505b509250505060405180910390f35b610add60048036036020811015610ac757600080fd5b8101908080359060200190929190505050611b2b565b6040518080602001828103825283818151815260200191508051906020019080838360005b83811015610b1d578082015181840152602081019050610b02565b50505050905090810190601f168015610b4a5780820380516001836020036101000a031916815260200191505b509250505060405180910390f35b610b8460048036036020811015610b6e57600080fd5b8101908080359060200190929190505050611bdc565b005b610bb260048036036020811015610b9c57600080fd5b8101908080359060200190929190505050611e6a565b6040518080602001828103825283818151815260200191508051906020019080838360005b83811015610bf2578082015181840152602081019050610bd7565b50505050905090810190601f168015610c1f5780820380516001836020036101000a031916815260200191505b509250505060405180910390f35b610c5960048036036020811015610c4357600080fd5b8101908080359060200190929190505050611f1a565b6040518080602001828103825283818151815260200191508051906020019080838360005b83811015610c99578082015181840152602081019050610c7e565b50505050905090810190601f168015610cc65780820380516001836020036101000a031916815260200191505b509250505060405180910390f35b60008160648110610ce157fe5b016000915054906101000a900473ffffffffffffffffffffffffffffffffffffffff1681565b60648160648110610d1457fe5b016000915090508054600181600116156101000203166002900480601f016020809104026020016040519081016040528092919081815260200182805460018160011615610100020316600290048015610daf5780601f10610d8457610100808354040283529160200191610daf565b820191906000526020600020905b815481529060010190602001808311610d9257829003601f168201915b505050505081565b600080600090505b606481101561115757600073ffffffffffffffffffffffffffffffffffffffff1660008260648110610ded57fe5b0160009054906101000a900473ffffffffffffffffffffffffffffffffffffffff1673ffffffffffffffffffffffffffffffffffffffff16141561114a573360008260648110610e3957fe5b0160006101000a81548173ffffffffffffffffffffffffffffffffffffffff021916908373ffffffffffffffffffffffffffffffffffffffff1602179055508660648260648110610e8657fe5b019080519060200190610e9a929190612041565b508560c88260648110610ea957fe5b019080519060200190610ebd929190612041565b508461012c8260648110610ecd57fe5b019080519060200190610ee1929190612041565b50836101908260648110610ef157fe5b019080519060200190610f05929190612041565b50826101f48260648110610f1557fe5b01819055507fa2dfc3afa308d4fc29ceab03ae435d17ce367bc720b6ff688b1350478e9a70b28188888888883360405180888152602001806020018060200180602001806020018781526020018673ffffffffffffffffffffffffffffffffffffffff1673ffffffffffffffffffffffffffffffffffffffff16815260200185810385528b818151815260200191508051906020019080838360005b83811015610fcc578082015181840152602081019050610fb1565b50505050905090810190601f168015610ff95780820380516001836020036101000a031916815260200191505b5085810384528a818151815260200191508051906020019080838360005b83811015611032578082015181840152602081019050611017565b50505050905090810190601f16801561105f5780820380516001836020036101000a031916815260200191505b50858103835289818151815260200191508051906020019080838360005b8381101561109857808201518184015260208101905061107d565b50505050905090810190601f1680156110c55780820380516001836020036101000a031916815260200191505b50858103825288818151815260200191508051906020019080838360005b838110156110fe5780820151818401526020810190506110e3565b50505050905090810190601f16801561112b5780820380516001836020036101000a031916815260200191505b509b50505050505050505050505060405180910390a1809150506111a9565b8080600101915050610dbf565b506040517f08c379a000000000000000000000000000000000000000000000000000000000815260040180806020018281038252602681526020018061210a6026913960400191505060405180910390fd5b95945050505050565b60606064821061122a576040517f08c379a00000000000000000000000000000000000000000000000000000000081526004018080602001828103825260138152602001807f496e76616c696420636f75726965722049442e0000000000000000000000000081525060200191505060405180910390fd5b60c8826064811061123757fe5b018054600181600116156101000203166002900480601f0160208091040260200160405190810160405280929190818152602001828054600181600116156101000203166002900480156112cc5780601f106112a1576101008083540402835291602001916112cc565b820191906000526020600020905b8154815290600101906020018083116112af57829003601f168201915b50505050509050919050565b600060648210611350576040517f08c379a00000000000000000000000000000000000000000000000000000000081526004018080602001828103825260138152602001807f496e76616c696420636f75726965722049442e0000000000000000000000000081525060200191505060405180910390fd5b6101f4826064811061135e57fe5b01549050919050565b6060606482106113df576040517f08c379a00000000000000000000000000000000000000000000000000000000081526004018080602001828103825260138152602001807f496e76616c696420636f75726965722049442e0000000000000000000000000081525060200191505060405180910390fd5b61019082606481106113ed57fe5b018054600181600116156101000203166002900480601f0160208091040260200160405190810160405280929190818152602001828054600181600116156101000203166002900480156114825780601f1061145757610100808354040283529160200191611482565b820191906000526020600020905b81548152906001019060200180831161146557829003601f168201915b50505050509050919050565b606060648210611506576040517f08c379a00000000000000000000000000000000000000000000000000000000081526004018080602001828103825260138152602001807f496e76616c696420636f75726965722049442e0000000000000000000000000081525060200191505060405180910390fd5b6064826064811061151357fe5b018054600181600116156101000203166002900480601f0160208091040260200160405190810160405280929190818152602001828054600181600116156101000203166002900480156115a85780601f1061157d576101008083540402835291602001916115a8565b820191906000526020600020905b81548152906001019060200180831161158b57829003601f168201915b50505050509050919050565b6115bc6120c1565b600060648060200260405190810160405280929190826064801561162b576020028201915b8160009054906101000a900473ffffffffffffffffffffffffffffffffffffffff1673ffffffffffffffffffffffffffffffffffffffff16815260200190600101908083116115e1575b5050505050905090565b60006060806060806000606487106116b5576040517f08c379a00000000000000000000000000000000000000000000000000000000081526004018080602001828103825260138152602001807f496e76616c696420636f75726965722049442e0000000000000000000000000081525060200191505060405180910390fd5b600087606481106116c257fe5b0160009054906101000a900473ffffffffffffffffffffffffffffffffffffffff16606488606481106116f157fe5b0160c889606481106116ff57fe5b0161012c8a6064811061170e57fe5b016101908b6064811061171d57fe5b016101f48c6064811061172c57fe5b0154848054600181600116156101000203166002900480601f0160208091040260200160405190810160405280929190818152602001828054600181600116156101000203166002900480156117c35780601f10611798576101008083540402835291602001916117c3565b820191906000526020600020905b8154815290600101906020018083116117a657829003601f168201915b50505050509450838054600181600116156101000203166002900480601f01602080910402602001604051908101604052809291908181526020018280546001816001161561010002031660029004801561185f5780601f106118345761010080835404028352916020019161185f565b820191906000526020600020905b81548152906001019060200180831161184257829003601f168201915b50505050509350828054600181600116156101000203166002900480601f0160208091040260200160405190810160405280929190818152602001828054600181600116156101000203166002900480156118fb5780601f106118d0576101008083540402835291602001916118fb565b820191906000526020600020905b8154815290600101906020018083116118de57829003601f168201915b50505050509250818054600181600116156101000203166002900480601f0160208091040260200160405190810160405280929190818152602001828054600181600116156101000203166002900480156119975780601f1061196c57610100808354040283529160200191611997565b820191906000526020600020905b81548152906001019060200180831161197a57829003601f168201915b5050505050915095509550955095509550955091939550919395565b6101f481606481106119c157fe5b016000915090505481565b600060648210611a44576040517f08c379a00000000000000000000000000000000000000000000000000000000081526004018080602001828103825260138152602001807f496e76616c696420636f75726965722049442e0000000000000000000000000081525060200191505060405180910390fd5b60008260648110611a5157fe5b0160009054906101000a900473ffffffffffffffffffffffffffffffffffffffff169050919050565b6101908160648110611a8857fe5b016000915090508054600181600116156101000203166002900480601f016020809104026020016040519081016040528092919081815260200182805460018160011615610100020316600290048015611b235780601f10611af857610100808354040283529160200191611b23565b820191906000526020600020905b815481529060010190602001808311611b0657829003601f168201915b505050505081565b61012c8160648110611b3957fe5b016000915090508054600181600116156101000203166002900480601f016020809104026020016040519081016040528092919081815260200182805460018160011615610100020316600290048015611bd45780601f10611ba957610100808354040283529160200191611bd4565b820191906000526020600020905b815481529060010190602001808311611bb757829003601f168201915b505050505081565b60648110611c52576040517f08c379a00000000000000000000000000000000000000000000000000000000081526004018080602001828103825260138152602001807f496e76616c696420636f75726965722049442e0000000000000000000000000081525060200191505060405180910390fd5b3373ffffffffffffffffffffffffffffffffffffffff1660008260648110611c7657fe5b0160009054906101000a900473ffffffffffffffffffffffffffffffffffffffff1673ffffffffffffffffffffffffffffffffffffffff1614611d04576040517f08c379a00000000000000000000000000000000000000000000000000000000081526004018080602001828103825260328152602001806121306032913960400191505060405180910390fd5b6000808260648110611d1257fe5b0160006101000a81548173ffffffffffffffffffffffffffffffffffffffff021916908373ffffffffffffffffffffffffffffffffffffffff1602179055506040518060200160405280600081525060648260648110611d6e57fe5b019080519060200190611d82929190612041565b506040518060200160405280600081525060c88260648110611da057fe5b019080519060200190611db4929190612041565b506040518060200160405280600081525061012c8260648110611dd357fe5b019080519060200190611de7929190612041565b50604051806020016040528060008152506101908260648110611e0657fe5b019080519060200190611e1a929190612041565b5060006101f48260648110611e2b57fe5b01819055507fdfba789582609e025ecfd77dc9a5be932441a85eb2b73086d15def212a5b80f5816040518082815260200191505060405180910390a150565b60c88160648110611e7757fe5b016000915090508054600181600116156101000203166002900480601f016020809104026020016040519081016040528092919081815260200182805460018160011615610100020316600290048015611f125780601f10611ee757610100808354040283529160200191611f12565b820191906000526020600020905b815481529060010190602001808311611ef557829003601f168201915b505050505081565b606060648210611f92576040517f08c379a00000000000000000000000000000000000000000000000000000000081526004018080602001828103825260138152602001807f496e76616c696420636f75726965722049442e0000000000000000000000000081525060200191505060405180910390fd5b61012c8260648110611fa057fe5b018054600181600116156101000203166002900480601f0160208091040260200160405190810160405280929190818152602001828054600181600116156101000203166002900480156120355780601f1061200a57610100808354040283529160200191612035565b820191906000526020600020905b81548152906001019060200180831161201857829003601f168201915b50505050509050919050565b828054600181600116156101000203166002900490600052602060002090601f016020900481019282601f1061208257805160ff19168380011785556120b0565b828001600101855582156120b0579182015b828111156120af578251825591602001919060010190612094565b5b5090506120bd91906120e4565b5090565b60405180610c800160405280606490602082028038833980820191505090505090565b61210691905b808211156121025760008160009055506001016120ea565b5090565b9056fe4e6f20737061636520617661696c61626c6520666f72206d6f726520496e76656e746f72792e596f75206d75737420626520746865206f776e6572206f662074686520636f757269657220746f2072656d6f76652069742ea265627a7a7231582074e029aab58aa046561e2692ac60d801ee346f8724f067c972ddd9809353bb8964736f6c63430005100032",
  "source": "pragma solidity ^0.5.16;\n\ncontract CourierManager {\n    address[100] public owners;\n    string[100] public titles;\n    string[100] public descriptions;\n    string[100] public categories;\n    string[100] public locations;\n    uint256[100] public quantities; // Store quantity as uint256 instead of string\n\n\n   // uint256 public constant COURIER_FEE = 0.01 ether; // Set a fixed fee for adding a courier\n\n    event CourierAdded(uint256 id, string title, string description, string category, string location, uint256 quantity, address courier);\n    event CourierRemoved(uint256 id);\n\n    // Add courier with title, description,category, location, and quantity\n    function addCourier(string memory _title, string memory _description, string memory _category, string memory _location, uint256 _quantity ) public returns(uint256){\n       // require(msg.value > 0, \"You must send some ETH to add a courier.\");\n\n         // require(msg.value >= COURIER_FEE, \"Insufficient fee provided.\");\n\n         // Iterate over the array to find the first empty slot\n        for (uint256 i = 0; i < owners.length; i++) {\n            if (owners[i] == address(0)) { // // Slot available if the address is empty\n                owners[i] = msg.sender; // Store sender address\n                titles[i] = _title; // Store title\n                descriptions[i] = _description; // Store description\n                categories[i] = _category; // Store category\n                locations[i] = _location; // Store location\n                quantities[i] = _quantity; // Store quantity\n\n                emit CourierAdded(i, _title, _description,  _category, _location, _quantity, msg.sender); // Emit event with the value field\n                return i; // Return the index of the added courier\n            }\n        }\n        revert(\"No space available for more Inventory.\"); // Revert if array is full\n    }\n\n    // Remove courier by ID\n    function removeCourier(uint256 _id) public {\n        require(_id < owners.length, \"Invalid courier ID.\"); // Check if ID is valid\n        require(owners[_id] == msg.sender, \"You must be the owner of the courier to remove it.\");\n\n        owners[_id] = address(0); // Reset the owner's address\n        titles[_id] = \"\"; // Reset the title\n        descriptions[_id] = \"\"; // Reset the description\n        categories[_id] = \"\"; // Reset the category\n        locations[_id] = \"\"; // Reset the location\n        quantities[_id] = 0; // Reset the quantity\n\n        emit CourierRemoved(_id); // Emit event for removal\n    }\n\n    // Getter functions\n    function getAddresses() public view returns (address[100] memory) {\n        return owners;\n    }\n\n    function getAddress(uint256 _id) public view returns (address) {\n        require(_id < owners.length, \"Invalid courier ID.\"); // Check if ID is valid\n        return owners[_id];\n    }\n\n    function getTitle(uint256 _id) public view returns (string memory) {\n        require(_id < owners.length, \"Invalid courier ID.\"); // Check if ID is valid\n        return titles[_id];\n    }\n\n    function getDescription(uint256 _id) public view returns (string memory) {\n        require(_id < owners.length, \"Invalid courier ID.\"); // Check if ID is valid\n        return descriptions[_id];\n    }\n\n     function getCategory(uint256 _id) public view returns (string memory) {\n        require(_id < owners.length, \"Invalid courier ID.\"); // Check if ID is valid\n        return categories[_id];\n    }\n\n    function getLocation(uint256 _id) public view returns (string memory) {\n        require(_id < owners.length, \"Invalid courier ID.\"); // Check if ID is valid\n        return locations[_id];\n    }\n\n    function getQuantity(uint256 _id) public view returns (uint256) {\n        require(_id < owners.length, \"Invalid courier ID.\"); // Check if ID is valid\n        return quantities[_id];\n    }\n\n    // Retrieve full courier information including value\n    function getCourier(uint256 _id) public view returns (address, string memory, string memory,  string memory, \n            string memory, \n            uint256) {\n        require(_id < owners.length, \"Invalid courier ID.\"); // Check if ID is valid\n        return (owners[_id], titles[_id], descriptions[_id],  categories[_id], \n            locations[_id], \n            quantities[_id]);\n    }\n}\n",
  "sourcePath": "C:\\Users\\Ibrar Ali\\Downloads\\CryptoCourier-main\\contracts\\CourierManager.sol",
  "compiler": {
    "name": "solc",
    "version": "0.5.16+commit.9c3226ce.Emscripten.clang"
  },
  "schemaVersion": "3.4.16",
  "updatedAt": "2024-10-09T08:05:55.396Z",
  "networkType": "ethereum",
  "devdoc": {
    "methods": {}
  },
  "userdoc": {
    "methods": {}
  }
}