{
  "contractName": "CourierManager",
  "abi": [
    {
      "anonymous": false,
      "inputs": [
        {
          "indexed": false,
          "internalType": "uint256",
          "name": "id",
          "type": "uint256"
        },
        {
          "indexed": false,
          "internalType": "string",
          "name": "title",
          "type": "string"
        },
        {
          "indexed": false,
          "internalType": "string",
          "name": "description",
          "type": "string"
        },
        {
          "indexed": false,
          "internalType": "string",
          "name": "category",
          "type": "string"
        },
        {
          "indexed": false,
          "internalType": "string",
          "name": "location",
          "type": "string"
        },
        {
          "indexed": false,
          "internalType": "uint256",
          "name": "quantity",
          "type": "uint256"
        },
        {
          "indexed": false,
          "internalType": "address",
          "name": "courier",
          "type": "address"
        }
      ],
      "name": "CourierAdded",
      "type": "event"
    },
    {
      "anonymous": false,
      "inputs": [
        {
          "indexed": false,
          "internalType": "uint256",
          "name": "id",
          "type": "uint256"
        },
        {
          "indexed": false,
          "internalType": "uint256",
          "name": "quantities",
          "type": "uint256"
        }
      ],
      "name": "CourierRemoved",
      "type": "event"
    },
    {
      "constant": true,
      "inputs": [
        {
          "internalType": "uint256",
          "name": "",
          "type": "uint256"
        }
      ],
      "name": "categories",
      "outputs": [
        {
          "internalType": "string",
          "name": "",
          "type": "string"
        }
      ],
      "payable": false,
      "stateMutability": "view",
      "type": "function"
    },
    {
      "constant": true,
      "inputs": [
        {
          "internalType": "uint256",
          "name": "",
          "type": "uint256"
        }
      ],
      "name": "descriptions",
      "outputs": [
        {
          "internalType": "string",
          "name": "",
          "type": "string"
        }
      ],
      "payable": false,
      "stateMutability": "view",
      "type": "function"
    },
    {
      "constant": true,
      "inputs": [
        {
          "internalType": "uint256",
          "name": "",
          "type": "uint256"
        }
      ],
      "name": "locations",
      "outputs": [
        {
          "internalType": "string",
          "name": "",
          "type": "string"
        }
      ],
      "payable": false,
      "stateMutability": "view",
      "type": "function"
    },
    {
      "constant": true,
      "inputs": [
        {
          "internalType": "uint256",
          "name": "",
          "type": "uint256"
        }
      ],
      "name": "owners",
      "outputs": [
        {
          "internalType": "address",
          "name": "",
          "type": "address"
        }
      ],
      "payable": false,
      "stateMutability": "view",
      "type": "function"
    },
    {
      "constant": true,
      "inputs": [
        {
          "internalType": "uint256",
          "name": "",
          "type": "uint256"
        }
      ],
      "name": "quantities",
      "outputs": [
        {
          "internalType": "uint256",
          "name": "",
          "type": "uint256"
        }
      ],
      "payable": false,
      "stateMutability": "view",
      "type": "function"
    },
    {
      "constant": true,
      "inputs": [
        {
          "internalType": "uint256",
          "name": "",
          "type": "uint256"
        }
      ],
      "name": "titles",
      "outputs": [
        {
          "internalType": "string",
          "name": "",
          "type": "string"
        }
      ],
      "payable": false,
      "stateMutability": "view",
      "type": "function"
    },
    {
      "constant": false,
      "inputs": [
        {
          "internalType": "string",
          "name": "_title",
          "type": "string"
        },
        {
          "internalType": "string",
          "name": "_description",
          "type": "string"
        },
        {
          "internalType": "string",
          "name": "_category",
          "type": "string"
        },
        {
          "internalType": "string",
          "name": "_location",
          "type": "string"
        },
        {
          "internalType": "uint256",
          "name": "_quantity",
          "type": "uint256"
        }
      ],
      "name": "addCourier",
      "outputs": [
        {
          "internalType": "uint256",
          "name": "",
          "type": "uint256"
        }
      ],
      "payable": false,
      "stateMutability": "nonpayable",
      "type": "function"
    },
    {
      "constant": false,
      "inputs": [
        {
          "internalType": "uint256",
          "name": "_id",
          "type": "uint256"
        },
        {
          "internalType": "uint256",
          "name": "_quantityToRemove",
          "type": "uint256"
        }
      ],
      "name": "removeCourier",
      "outputs": [],
      "payable": false,
      "stateMutability": "nonpayable",
      "type": "function"
    },
    {
      "constant": false,
      "inputs": [
        {
          "internalType": "uint256",
          "name": "_id",
          "type": "uint256"
        },
        {
          "internalType": "uint256",
          "name": "_additionalQuantity",
          "type": "uint256"
        }
      ],
      "name": "updateQuantity",
      "outputs": [],
      "payable": false,
      "stateMutability": "nonpayable",
      "type": "function"
    },
    {
      "constant": true,
      "inputs": [],
      "name": "getAddresses",
      "outputs": [
        {
          "internalType": "address[100]",
          "name": "",
          "type": "address[100]"
        }
      ],
      "payable": false,
      "stateMutability": "view",
      "type": "function"
    },
    {
      "constant": true,
      "inputs": [
        {
          "internalType": "uint256",
          "name": "_id",
          "type": "uint256"
        }
      ],
      "name": "getAddress",
      "outputs": [
        {
          "internalType": "address",
          "name": "",
          "type": "address"
        }
      ],
      "payable": false,
      "stateMutability": "view",
      "type": "function"
    },
    {
      "constant": true,
      "inputs": [
        {
          "internalType": "uint256",
          "name": "_id",
          "type": "uint256"
        }
      ],
      "name": "getTitle",
      "outputs": [
        {
          "internalType": "string",
          "name": "",
          "type": "string"
        }
      ],
      "payable": false,
      "stateMutability": "view",
      "type": "function"
    },
    {
      "constant": true,
      "inputs": [
        {
          "internalType": "uint256",
          "name": "_id",
          "type": "uint256"
        }
      ],
      "name": "getDescription",
      "outputs": [
        {
          "internalType": "string",
          "name": "",
          "type": "string"
        }
      ],
      "payable": false,
      "stateMutability": "view",
      "type": "function"
    },
    {
      "constant": true,
      "inputs": [
        {
          "internalType": "uint256",
          "name": "_id",
          "type": "uint256"
        }
      ],
      "name": "getCategory",
      "outputs": [
        {
          "internalType": "string",
          "name": "",
          "type": "string"
        }
      ],
      "payable": false,
      "stateMutability": "view",
      "type": "function"
    },
    {
      "constant": true,
      "inputs": [
        {
          "internalType": "uint256",
          "name": "_id",
          "type": "uint256"
        }
      ],
      "name": "getLocation",
      "outputs": [
        {
          "internalType": "string",
          "name": "",
          "type": "string"
        }
      ],
      "payable": false,
      "stateMutability": "view",
      "type": "function"
    },
    {
      "constant": true,
      "inputs": [
        {
          "internalType": "uint256",
          "name": "_id",
          "type": "uint256"
        }
      ],
      "name": "getQuantity",
      "outputs": [
        {
          "internalType": "uint256",
          "name": "",
          "type": "uint256"
        }
      ],
      "payable": false,
      "stateMutability": "view",
      "type": "function"
    },
    {
      "constant": true,
      "inputs": [
        {
          "internalType": "uint256",
          "name": "_id",
          "type": "uint256"
        }
      ],
      "name": "getCourier",
      "outputs": [
        {
          "internalType": "address",
          "name": "",
          "type": "address"
        },
        {
          "internalType": "string",
          "name": "",
          "type": "string"
        },
        {
          "internalType": "string",
          "name": "",
          "type": "string"
        },
        {
          "internalType": "string",
          "name": "",
          "type": "string"
        },
        {
          "internalType": "string",
          "name": "",
          "type": "string"
        },
        {
          "internalType": "uint256",
          "name": "",
          "type": "uint256"
        }
      ],
      "payable": false,
      "stateMutability": "view",
      "type": "function"
    }
  ],
  "bytecode": "0x608060405234801561001057600080fd5b506125e3806100206000396000f3fe608060405234801561001057600080fd5b506004361061010b5760003560e01c8063a39fac12116100a2578063b9e0db3511610071578063b9e0db3514610a4d578063c6cdbe5e14610af4578063e6f859e714610b9b578063ee3be52914610c42578063f3052d2614610c7a5761010b565b8063a39fac1214610732578063a3ea706d14610778578063a41254031461099d578063b93f9b0a146109df5761010b565b80635ebd9ded116100de5780635ebd9ded1461056a57806379cd4921146105ac5780637f7b1393146105e4578063929a79b11461068b5761010b565b8063025e7c27146101105780632cda1bf71461017e57806336f5c60a146102255780634925ec55146104c3575b600080fd5b61013c6004803603602081101561012657600080fd5b8101908080359060200190929190505050610d21565b604051808273ffffffffffffffffffffffffffffffffffffffff1673ffffffffffffffffffffffffffffffffffffffff16815260200191505060405180910390f35b6101aa6004803603602081101561019457600080fd5b8101908080359060200190929190505050610d54565b6040518080602001828103825283818151815260200191508051906020019080838360005b838110156101ea5780820151818401526020810190506101cf565b50505050905090810190601f1680156102175780820380516001836020036101000a031916815260200191505b509250505060405180910390f35b6104ad600480360360a081101561023b57600080fd5b810190808035906020019064010000000081111561025857600080fd5b82018360208201111561026a57600080fd5b8035906020019184600183028401116401000000008311171561028c57600080fd5b91908080601f016020809104026020016040519081016040528093929190818152602001838380828437600081840152601f19601f820116905080830192505050505050509192919290803590602001906401000000008111156102ef57600080fd5b82018360208201111561030157600080fd5b8035906020019184600183028401116401000000008311171561032357600080fd5b91908080601f016020809104026020016040519081016040528093929190818152602001838380828437600081840152601f19601f8201169050808301925050505050505091929192908035906020019064010000000081111561038657600080fd5b82018360208201111561039857600080fd5b803590602001918460018302840111640100000000831117156103ba57600080fd5b91908080601f016020809104026020016040519081016040528093929190818152602001838380828437600081840152601f19601f8201169050808301925050505050505091929192908035906020019064010000000081111561041d57600080fd5b82018360208201111561042f57600080fd5b8035906020019184600183028401116401000000008311171561045157600080fd5b91908080601f016020809104026020016040519081016040528093929190818152602001838380828437600081840152601f19601f82011690508083019250505050505050919291929080359060200190929190505050610e04565b6040518082815260200191505060405180910390f35b6104ef600480360360208110156104d957600080fd5b81019080803590602001909291905050506111ff565b6040518080602001828103825283818151815260200191508051906020019080838360005b8381101561052f578082015181840152602081019050610514565b50505050905090810190601f16801561055c5780820380516001836020036101000a031916815260200191505b509250505060405180910390f35b6105966004803603602081101561058057600080fd5b8101908080359060200190929190505050611325565b6040518082815260200191505060405180910390f35b6105e2600480360360408110156105c257600080fd5b8101908080359060200190929190803590602001909291905050506113b4565b005b610610600480360360208110156105fa57600080fd5b81019080803590602001909291905050506117dd565b6040518080602001828103825283818151815260200191508051906020019080838360005b83811015610650578082015181840152602081019050610635565b50505050905090810190601f16801561067d5780820380516001836020036101000a031916815260200191505b509250505060405180910390f35b6106b7600480360360208110156106a157600080fd5b8101908080359060200190929190505050611904565b6040518080602001828103825283818151815260200191508051906020019080838360005b838110156106f75780820151818401526020810190506106dc565b50505050905090810190601f1680156107245780820380516001836020036101000a031916815260200191505b509250505060405180910390f35b61073a611a2a565b6040518082606460200280838360005b8381101561076557808201518184015260208101905061074a565b5050505090500191505060405180910390f35b6107a46004803603602081101561078e57600080fd5b8101908080359060200190929190505050611aab565b604051808773ffffffffffffffffffffffffffffffffffffffff1673ffffffffffffffffffffffffffffffffffffffff1681526020018060200180602001806020018060200186815260200185810385528a818151815260200191508051906020019080838360005b8381101561082857808201518184015260208101905061080d565b50505050905090810190601f1680156108555780820380516001836020036101000a031916815260200191505b50858103845289818151815260200191508051906020019080838360005b8381101561088e578082015181840152602081019050610873565b50505050905090810190601f1680156108bb5780820380516001836020036101000a031916815260200191505b50858103835288818151815260200191508051906020019080838360005b838110156108f45780820151818401526020810190506108d9565b50505050905090810190601f1680156109215780820380516001836020036101000a031916815260200191505b50858103825287818151815260200191508051906020019080838360005b8381101561095a57808201518184015260208101905061093f565b50505050905090810190601f1680156109875780820380516001836020036101000a031916815260200191505b509a505050505050505050505060405180910390f35b6109c9600480360360208110156109b357600080fd5b8101908080359060200190929190505050611e29565b6040518082815260200191505060405180910390f35b610a0b600480360360208110156109f557600080fd5b8101908080359060200190929190505050611e42565b604051808273ffffffffffffffffffffffffffffffffffffffff1673ffffffffffffffffffffffffffffffffffffffff16815260200191505060405180910390f35b610a7960048036036020811015610a6357600080fd5b8101908080359060200190929190505050611ef0565b6040518080602001828103825283818151815260200191508051906020019080838360005b83811015610ab9578082015181840152602081019050610a9e565b50505050905090810190601f168015610ae65780820380516001836020036101000a031916815260200191505b509250505060405180910390f35b610b2060048036036020811015610b0a57600080fd5b8101908080359060200190929190505050611fa1565b6040518080602001828103825283818151815260200191508051906020019080838360005b83811015610b60578082015181840152602081019050610b45565b50505050905090810190601f168015610b8d5780820380516001836020036101000a031916815260200191505b509250505060405180910390f35b610bc760048036036020811015610bb157600080fd5b8101908080359060200190929190505050612052565b6040518080602001828103825283818151815260200191508051906020019080838360005b83811015610c07578082015181840152602081019050610bec565b50505050905090810190601f168015610c345780820380516001836020036101000a031916815260200191505b509250505060405180910390f35b610c7860048036036040811015610c5857600080fd5b810190808035906020019092919080359060200190929190505050612102565b005b610ca660048036036020811015610c9057600080fd5b8101908080359060200190929190505050612367565b6040518080602001828103825283818151815260200191508051906020019080838360005b83811015610ce6578082015181840152602081019050610ccb565b50505050905090810190601f168015610d135780820380516001836020036101000a031916815260200191505b509250505060405180910390f35b60008160648110610d2e57fe5b016000915054906101000a900473ffffffffffffffffffffffffffffffffffffffff1681565b60648160648110610d6157fe5b016000915090508054600181600116156101000203166002900480601f016020809104026020016040519081016040528092919081815260200182805460018160011615610100020316600290048015610dfc5780601f10610dd157610100808354040283529160200191610dfc565b820191906000526020600020905b815481529060010190602001808311610ddf57829003601f168201915b505050505081565b600080600090505b60648110156111a457600073ffffffffffffffffffffffffffffffffffffffff1660008260648110610e3a57fe5b0160009054906101000a900473ffffffffffffffffffffffffffffffffffffffff1673ffffffffffffffffffffffffffffffffffffffff161415611197573360008260648110610e8657fe5b0160006101000a81548173ffffffffffffffffffffffffffffffffffffffff021916908373ffffffffffffffffffffffffffffffffffffffff1602179055508660648260648110610ed357fe5b019080519060200190610ee792919061248e565b508560c88260648110610ef657fe5b019080519060200190610f0a92919061248e565b508461012c8260648110610f1a57fe5b019080519060200190610f2e92919061248e565b50836101908260648110610f3e57fe5b019080519060200190610f5292919061248e565b50826101f48260648110610f6257fe5b01819055507fa2dfc3afa308d4fc29ceab03ae435d17ce367bc720b6ff688b1350478e9a70b28188888888883360405180888152602001806020018060200180602001806020018781526020018673ffffffffffffffffffffffffffffffffffffffff1673ffffffffffffffffffffffffffffffffffffffff16815260200185810385528b818151815260200191508051906020019080838360005b83811015611019578082015181840152602081019050610ffe565b50505050905090810190601f1680156110465780820380516001836020036101000a031916815260200191505b5085810384528a818151815260200191508051906020019080838360005b8381101561107f578082015181840152602081019050611064565b50505050905090810190601f1680156110ac5780820380516001836020036101000a031916815260200191505b50858103835289818151815260200191508051906020019080838360005b838110156110e55780820151818401526020810190506110ca565b50505050905090810190601f1680156111125780820380516001836020036101000a031916815260200191505b50858103825288818151815260200191508051906020019080838360005b8381101561114b578082015181840152602081019050611130565b50505050905090810190601f1680156111785780820380516001836020036101000a031916815260200191505b509b50505050505050505050505060405180910390a1809150506111f6565b8080600101915050610e0c565b506040517f08c379a00000000000000000000000000000000000000000000000000000000081526004018080602001828103825260268152602001806125576026913960400191505060405180910390fd5b95945050505050565b606060648210611277576040517f08c379a00000000000000000000000000000000000000000000000000000000081526004018080602001828103825260138152602001807f496e76616c696420636f75726965722049442e0000000000000000000000000081525060200191505060405180910390fd5b60c8826064811061128457fe5b018054600181600116156101000203166002900480601f0160208091040260200160405190810160405280929190818152602001828054600181600116156101000203166002900480156113195780601f106112ee57610100808354040283529160200191611319565b820191906000526020600020905b8154815290600101906020018083116112fc57829003601f168201915b50505050509050919050565b60006064821061139d576040517f08c379a00000000000000000000000000000000000000000000000000000000081526004018080602001828103825260138152602001807f496e76616c696420636f75726965722049442e0000000000000000000000000081525060200191505060405180910390fd5b6101f482606481106113ab57fe5b01549050919050565b6064821061142a576040517f08c379a00000000000000000000000000000000000000000000000000000000081526004018080602001828103825260138152602001807f496e76616c696420636f75726965722049442e0000000000000000000000000081525060200191505060405180910390fd5b3373ffffffffffffffffffffffffffffffffffffffff166000836064811061144e57fe5b0160009054906101000a900473ffffffffffffffffffffffffffffffffffffffff1673ffffffffffffffffffffffffffffffffffffffff16146114dc576040517f08c379a000000000000000000000000000000000000000000000000000000000815260040180806020018281038252603281526020018061257d6032913960400191505060405180910390fd5b806101f483606481106114eb57fe5b01600082825401925050819055507fa2dfc3afa308d4fc29ceab03ae435d17ce367bc720b6ff688b1350478e9a70b2826064846064811061152857fe5b0160c8856064811061153657fe5b0161012c866064811061154557fe5b01610190876064811061155457fe5b016101f4886064811061156357fe5b01543360405180888152602001806020018060200180602001806020018781526020018673ffffffffffffffffffffffffffffffffffffffff1673ffffffffffffffffffffffffffffffffffffffff16815260200185810385528b8181546001816001161561010002031660029004815260200191508054600181600116156101000203166002900480156116395780601f1061160e57610100808354040283529160200191611639565b820191906000526020600020905b81548152906001019060200180831161161c57829003601f168201915b505085810384528a8181546001816001161561010002031660029004815260200191508054600181600116156101000203166002900480156116bc5780601f10611691576101008083540402835291602001916116bc565b820191906000526020600020905b81548152906001019060200180831161169f57829003601f168201915b505085810383528981815460018160011615610100020316600290048152602001915080546001816001161561010002031660029004801561173f5780601f106117145761010080835404028352916020019161173f565b820191906000526020600020905b81548152906001019060200180831161172257829003601f168201915b50508581038252888181546001816001161561010002031660029004815260200191508054600181600116156101000203166002900480156117c25780601f10611797576101008083540402835291602001916117c2565b820191906000526020600020905b8154815290600101906020018083116117a557829003601f168201915b50509b50505050505050505050505060405180910390a15050565b606060648210611855576040517f08c379a00000000000000000000000000000000000000000000000000000000081526004018080602001828103825260138152602001807f496e76616c696420636f75726965722049442e0000000000000000000000000081525060200191505060405180910390fd5b610190826064811061186357fe5b018054600181600116156101000203166002900480601f0160208091040260200160405190810160405280929190818152602001828054600181600116156101000203166002900480156118f85780601f106118cd576101008083540402835291602001916118f8565b820191906000526020600020905b8154815290600101906020018083116118db57829003601f168201915b50505050509050919050565b60606064821061197c576040517f08c379a00000000000000000000000000000000000000000000000000000000081526004018080602001828103825260138152602001807f496e76616c696420636f75726965722049442e0000000000000000000000000081525060200191505060405180910390fd5b6064826064811061198957fe5b018054600181600116156101000203166002900480601f016020809104026020016040519081016040528092919081815260200182805460018160011615610100020316600290048015611a1e5780601f106119f357610100808354040283529160200191611a1e565b820191906000526020600020905b815481529060010190602001808311611a0157829003601f168201915b50505050509050919050565b611a3261250e565b6000606480602002604051908101604052809291908260648015611aa1576020028201915b8160009054906101000a900473ffffffffffffffffffffffffffffffffffffffff1673ffffffffffffffffffffffffffffffffffffffff1681526020019060010190808311611a57575b5050505050905090565b6000606080606080600060648710611b2b576040517f08c379a00000000000000000000000000000000000000000000000000000000081526004018080602001828103825260138152602001807f496e76616c696420636f75726965722049442e0000000000000000000000000081525060200191505060405180910390fd5b60008760648110611b3857fe5b0160009054906101000a900473ffffffffffffffffffffffffffffffffffffffff1660648860648110611b6757fe5b0160c88960648110611b7557fe5b0161012c8a60648110611b8457fe5b016101908b60648110611b9357fe5b016101f48c60648110611ba257fe5b0154848054600181600116156101000203166002900480601f016020809104026020016040519081016040528092919081815260200182805460018160011615610100020316600290048015611c395780601f10611c0e57610100808354040283529160200191611c39565b820191906000526020600020905b815481529060010190602001808311611c1c57829003601f168201915b50505050509450838054600181600116156101000203166002900480601f016020809104026020016040519081016040528092919081815260200182805460018160011615610100020316600290048015611cd55780601f10611caa57610100808354040283529160200191611cd5565b820191906000526020600020905b815481529060010190602001808311611cb857829003601f168201915b50505050509350828054600181600116156101000203166002900480601f016020809104026020016040519081016040528092919081815260200182805460018160011615610100020316600290048015611d715780601f10611d4657610100808354040283529160200191611d71565b820191906000526020600020905b815481529060010190602001808311611d5457829003601f168201915b50505050509250818054600181600116156101000203166002900480601f016020809104026020016040519081016040528092919081815260200182805460018160011615610100020316600290048015611e0d5780601f10611de257610100808354040283529160200191611e0d565b820191906000526020600020905b815481529060010190602001808311611df057829003601f168201915b5050505050915095509550955095509550955091939550919395565b6101f48160648110611e3757fe5b016000915090505481565b600060648210611eba576040517f08c379a00000000000000000000000000000000000000000000000000000000081526004018080602001828103825260138152602001807f496e76616c696420636f75726965722049442e0000000000000000000000000081525060200191505060405180910390fd5b60008260648110611ec757fe5b0160009054906101000a900473ffffffffffffffffffffffffffffffffffffffff169050919050565b6101908160648110611efe57fe5b016000915090508054600181600116156101000203166002900480601f016020809104026020016040519081016040528092919081815260200182805460018160011615610100020316600290048015611f995780601f10611f6e57610100808354040283529160200191611f99565b820191906000526020600020905b815481529060010190602001808311611f7c57829003601f168201915b505050505081565b61012c8160648110611faf57fe5b016000915090508054600181600116156101000203166002900480601f01602080910402602001604051908101604052809291908181526020018280546001816001161561010002031660029004801561204a5780601f1061201f5761010080835404028352916020019161204a565b820191906000526020600020905b81548152906001019060200180831161202d57829003601f168201915b505050505081565b60c8816064811061205f57fe5b016000915090508054600181600116156101000203166002900480601f0160208091040260200160405190810160405280929190818152602001828054600181600116156101000203166002900480156120fa5780601f106120cf576101008083540402835291602001916120fa565b820191906000526020600020905b8154815290600101906020018083116120dd57829003601f168201915b505050505081565b60648210612178576040517f08c379a00000000000000000000000000000000000000000000000000000000081526004018080602001828103825260138152602001807f496e76616c696420636f75726965722049442e0000000000000000000000000081525060200191505060405180910390fd5b3373ffffffffffffffffffffffffffffffffffffffff166000836064811061219c57fe5b0160009054906101000a900473ffffffffffffffffffffffffffffffffffffffff1673ffffffffffffffffffffffffffffffffffffffff161461222a576040517f08c379a000000000000000000000000000000000000000000000000000000000815260040180806020018281038252603281526020018061257d6032913960400191505060405180910390fd5b806101f4836064811061223957fe5b015410156122af576040517f08c379a00000000000000000000000000000000000000000000000000000000081526004018080602001828103825260208152602001807f496e73756666696369656e74207175616e7469747920746f2072656d6f76652e81525060200191505060405180910390fd5b806101f483606481106122be57fe5b01600082825403925050819055507f17459e8f524bf6ac816722e875007f7668939a0903a01a9d965b0215e876ac958282604051808381526020018281526020019250505060405180910390a160006101f4836064811061231b57fe5b01541415612363577f17459e8f524bf6ac816722e875007f7668939a0903a01a9d965b0215e876ac958282604051808381526020018281526020019250505060405180910390a15b5050565b6060606482106123df576040517f08c379a00000000000000000000000000000000000000000000000000000000081526004018080602001828103825260138152602001807f496e76616c696420636f75726965722049442e0000000000000000000000000081525060200191505060405180910390fd5b61012c82606481106123ed57fe5b018054600181600116156101000203166002900480601f0160208091040260200160405190810160405280929190818152602001828054600181600116156101000203166002900480156124825780601f1061245757610100808354040283529160200191612482565b820191906000526020600020905b81548152906001019060200180831161246557829003601f168201915b50505050509050919050565b828054600181600116156101000203166002900490600052602060002090601f016020900481019282601f106124cf57805160ff19168380011785556124fd565b828001600101855582156124fd579182015b828111156124fc5782518255916020019190600101906124e1565b5b50905061250a9190612531565b5090565b60405180610c800160405280606490602082028038833980820191505090505090565b61255391905b8082111561254f576000816000905550600101612537565b5090565b9056fe4e6f20737061636520617661696c61626c6520666f72206d6f726520496e76656e746f72792e596f75206d75737420626520746865206f776e6572206f662074686520636f757269657220746f206d6f646966792069742ea265627a7a723158208044e6e80309e0dfd4d6db7c16d29337ff40fa440f4c6971f6bf8d159eb2199c64736f6c63430005100032",
  "source": "pragma solidity ^0.5.16;\n\ncontract CourierManager {\n    address[100] public owners;\n    string[100] public titles;\n    string[100] public descriptions;\n    string[100] public categories;\n    string[100] public locations;\n    uint256[100] public quantities; // Store quantity as uint256 instead of string\n\n\n   // uint256 public constant COURIER_FEE = 0.01 ether; // Set a fixed fee for adding a courier\n\n    event CourierAdded(uint256 id, string title, string description, string category, string location, uint256 quantity, address courier);\n    event CourierRemoved(uint256 id, uint256 quantities);\n\n    // Add courier with title, description,category, location, and quantity\n    function addCourier(string memory _title, string memory _description, string memory _category, string memory _location, uint256 _quantity ) public returns(uint256){\n       // require(msg.value > 0, \"You must send some ETH to add a courier.\");\n\n         // require(msg.value >= COURIER_FEE, \"Insufficient fee provided.\");\n\n         // Iterate over the array to find the first empty slot\n        for (uint256 i = 0; i < owners.length; i++) {\n            if (owners[i] == address(0)) { // // Slot available if the address is empty\n                owners[i] = msg.sender; // Store sender address\n                titles[i] = _title; // Store title\n                descriptions[i] = _description; // Store description\n                categories[i] = _category; // Store category\n                locations[i] = _location; // Store location\n                quantities[i] = _quantity; // Store quantity\n\n                emit CourierAdded(i, _title, _description,  _category, _location, _quantity, msg.sender); // Emit event with the value field\n                return i; // Return the index of the added courier\n            }\n        }\n        revert(\"No space available for more Inventory.\"); // Revert if array is full\n    }\n\n    // Remove courier by ID\n    // Updated removeCourier function to subtract a specified quantity\nfunction removeCourier(uint256 _id, uint256 _quantityToRemove) public {\n    require(_id < owners.length, \"Invalid courier ID.\"); // Check if ID is valid\n    require(owners[_id] == msg.sender, \"You must be the owner of the courier to modify it.\");\n    require(quantities[_id] >= _quantityToRemove, \"Insufficient quantity to remove.\"); // Check if enough quantity exists\n\n    // Subtract the quantity\n    quantities[_id] -= _quantityToRemove;\n\n    // Emit an event if some quantity is removed\n    emit CourierRemoved(_id,_quantityToRemove);\n\n    // Optional: If all quantity is removed, you can leave the entry but with zero quantity\n    if (quantities[_id] == 0) {\n        // Optionally emit an event or leave the courier in the array with 0 quantity\n        emit CourierRemoved(_id, _quantityToRemove);\n    }\n}\n\n function updateQuantity(uint256 _id, uint256 _additionalQuantity) public {\n        require(_id < owners.length, \"Invalid courier ID.\");\n        require(owners[_id] == msg.sender, \"You must be the owner of the courier to modify it.\");\n        \n        quantities[_id] += _additionalQuantity;\n        \n        emit CourierAdded(_id, titles[_id], descriptions[_id], categories[_id], locations[_id], quantities[_id], msg.sender);\n    }\n\n    // Getter functions\n    function getAddresses() public view returns (address[100] memory) {\n        return owners;\n    }\n\n    function getAddress(uint256 _id) public view returns (address) {\n        require(_id < owners.length, \"Invalid courier ID.\"); // Check if ID is valid\n        return owners[_id];\n    }\n\n    function getTitle(uint256 _id) public view returns (string memory) {\n        require(_id < owners.length, \"Invalid courier ID.\"); // Check if ID is valid\n        return titles[_id];\n    }\n\n    function getDescription(uint256 _id) public view returns (string memory) {\n        require(_id < owners.length, \"Invalid courier ID.\"); // Check if ID is valid\n        return descriptions[_id];\n    }\n\n     function getCategory(uint256 _id) public view returns (string memory) {\n        require(_id < owners.length, \"Invalid courier ID.\"); // Check if ID is valid\n        return categories[_id];\n    }\n\n    function getLocation(uint256 _id) public view returns (string memory) {\n        require(_id < owners.length, \"Invalid courier ID.\"); // Check if ID is valid\n        return locations[_id];\n    }\n\n    function getQuantity(uint256 _id) public view returns (uint256) {\n        require(_id < owners.length, \"Invalid courier ID.\"); // Check if ID is valid\n        return quantities[_id];\n    }\n\n    // Retrieve full courier information including value\n    function getCourier(uint256 _id) public view returns (address, string memory, string memory,  string memory, \n            string memory, \n            uint256) {\n        require(_id < owners.length, \"Invalid courier ID.\"); // Check if ID is valid\n        return (owners[_id], titles[_id], descriptions[_id],  categories[_id], \n            locations[_id], \n            quantities[_id]);\n    }\n}\n",
  "sourcePath": "C:\\Users\\Ibrar Ali\\Downloads\\CryptoCourier-main\\contracts\\CourierManager.sol",
  "compiler": {
    "name": "solc",
    "version": "0.5.16+commit.9c3226ce.Emscripten.clang"
  },
  "schemaVersion": "3.4.16",
  "updatedAt": "2024-10-13T13:53:57.719Z",
  "networkType": "ethereum",
  "devdoc": {
    "methods": {}
  },
  "userdoc": {
    "methods": {}
  }
}