{
  "contractName": "CourierManager",
  "abi": [
    {
      "anonymous": false,
      "inputs": [
        {
          "indexed": false,
          "internalType": "uint256",
          "name": "id",
          "type": "uint256"
        },
        {
          "indexed": false,
          "internalType": "string",
          "name": "title",
          "type": "string"
        },
        {
          "indexed": false,
          "internalType": "string",
          "name": "description",
          "type": "string"
        },
        {
          "indexed": false,
          "internalType": "address",
          "name": "courier",
          "type": "address"
        }
      ],
      "name": "CourierAdded",
      "type": "event"
    },
    {
      "anonymous": false,
      "inputs": [
        {
          "indexed": false,
          "internalType": "uint256",
          "name": "id",
          "type": "uint256"
        }
      ],
      "name": "CourierRemoved",
      "type": "event"
    },
    {
      "constant": true,
      "inputs": [
        {
          "internalType": "uint256",
          "name": "",
          "type": "uint256"
        }
      ],
      "name": "descriptions",
      "outputs": [
        {
          "internalType": "string",
          "name": "",
          "type": "string"
        }
      ],
      "payable": false,
      "stateMutability": "view",
      "type": "function"
    },
    {
      "constant": true,
      "inputs": [
        {
          "internalType": "uint256",
          "name": "",
          "type": "uint256"
        }
      ],
      "name": "owners",
      "outputs": [
        {
          "internalType": "address",
          "name": "",
          "type": "address"
        }
      ],
      "payable": false,
      "stateMutability": "view",
      "type": "function"
    },
    {
      "constant": true,
      "inputs": [
        {
          "internalType": "uint256",
          "name": "",
          "type": "uint256"
        }
      ],
      "name": "titles",
      "outputs": [
        {
          "internalType": "string",
          "name": "",
          "type": "string"
        }
      ],
      "payable": false,
      "stateMutability": "view",
      "type": "function"
    },
    {
      "constant": false,
      "inputs": [
        {
          "internalType": "string",
          "name": "_title",
          "type": "string"
        },
        {
          "internalType": "string",
          "name": "_description",
          "type": "string"
        }
      ],
      "name": "addCourier",
      "outputs": [
        {
          "internalType": "uint256",
          "name": "",
          "type": "uint256"
        }
      ],
      "payable": true,
      "stateMutability": "payable",
      "type": "function"
    },
    {
      "constant": false,
      "inputs": [
        {
          "internalType": "uint256",
          "name": "_id",
          "type": "uint256"
        }
      ],
      "name": "removeCourier",
      "outputs": [],
      "payable": false,
      "stateMutability": "nonpayable",
      "type": "function"
    },
    {
      "constant": true,
      "inputs": [],
      "name": "getAddresses",
      "outputs": [
        {
          "internalType": "address[100]",
          "name": "",
          "type": "address[100]"
        }
      ],
      "payable": false,
      "stateMutability": "view",
      "type": "function"
    },
    {
      "constant": true,
      "inputs": [
        {
          "internalType": "uint256",
          "name": "_id",
          "type": "uint256"
        }
      ],
      "name": "getAddress",
      "outputs": [
        {
          "internalType": "address",
          "name": "",
          "type": "address"
        }
      ],
      "payable": false,
      "stateMutability": "view",
      "type": "function"
    },
    {
      "constant": true,
      "inputs": [
        {
          "internalType": "uint256",
          "name": "_id",
          "type": "uint256"
        }
      ],
      "name": "getTitle",
      "outputs": [
        {
          "internalType": "string",
          "name": "",
          "type": "string"
        }
      ],
      "payable": false,
      "stateMutability": "view",
      "type": "function"
    },
    {
      "constant": true,
      "inputs": [
        {
          "internalType": "uint256",
          "name": "_id",
          "type": "uint256"
        }
      ],
      "name": "getDescription",
      "outputs": [
        {
          "internalType": "string",
          "name": "",
          "type": "string"
        }
      ],
      "payable": false,
      "stateMutability": "view",
      "type": "function"
    },
    {
      "constant": true,
      "inputs": [
        {
          "internalType": "uint256",
          "name": "_id",
          "type": "uint256"
        }
      ],
      "name": "getCourier",
      "outputs": [
        {
          "internalType": "address",
          "name": "",
          "type": "address"
        },
        {
          "internalType": "string",
          "name": "",
          "type": "string"
        },
        {
          "internalType": "string",
          "name": "",
          "type": "string"
        }
      ],
      "payable": false,
      "stateMutability": "view",
      "type": "function"
    }
  ],
  "bytecode": "0x608060405234801561001057600080fd5b5061155d806100206000396000f3fe6080604052600436106100915760003560e01c8063a39fac1211610059578063a39fac1214610493578063a3ea706d146104e6578063b93f9b0a14610639578063e39febfd146106b4578063e6f859e7146106ef57610091565b8063025e7c271461009657806308094046146101115780632cda1bf7146102775780634925ec551461032b578063929a79b1146103df575b600080fd5b3480156100a257600080fd5b506100cf600480360360208110156100b957600080fd5b81019080803590602001909291905050506107a3565b604051808273ffffffffffffffffffffffffffffffffffffffff1673ffffffffffffffffffffffffffffffffffffffff16815260200191505060405180910390f35b6102616004803603604081101561012757600080fd5b810190808035906020019064010000000081111561014457600080fd5b82018360208201111561015657600080fd5b8035906020019184600183028401116401000000008311171561017857600080fd5b91908080601f016020809104026020016040519081016040528093929190818152602001838380828437600081840152601f19601f820116905080830192505050505050509192919290803590602001906401000000008111156101db57600080fd5b8201836020820111156101ed57600080fd5b8035906020019184600183028401116401000000008311171561020f57600080fd5b91908080601f016020809104026020016040519081016040528093929190818152602001838380828437600081840152601f19601f8201169050808301925050505050505091929192905050506107d6565b6040518082815260200191505060405180910390f35b34801561028357600080fd5b506102b06004803603602081101561029a57600080fd5b8101908080359060200190929190505050610ae8565b6040518080602001828103825283818151815260200191508051906020019080838360005b838110156102f05780820151818401526020810190506102d5565b50505050905090810190601f16801561031d5780820380516001836020036101000a031916815260200191505b509250505060405180910390f35b34801561033757600080fd5b506103646004803603602081101561034e57600080fd5b8101908080359060200190929190505050610b98565b6040518080602001828103825283818151815260200191508051906020019080838360005b838110156103a4578082015181840152602081019050610389565b50505050905090810190601f1680156103d15780820380516001836020036101000a031916815260200191505b509250505060405180910390f35b3480156103eb57600080fd5b506104186004803603602081101561040257600080fd5b8101908080359060200190929190505050610cbe565b6040518080602001828103825283818151815260200191508051906020019080838360005b8381101561045857808201518184015260208101905061043d565b50505050905090810190601f1680156104855780820380516001836020036101000a031916815260200191505b509250505060405180910390f35b34801561049f57600080fd5b506104a8610de4565b6040518082606460200280838360005b838110156104d35780820151818401526020810190506104b8565b5050505090500191505060405180910390f35b3480156104f257600080fd5b5061051f6004803603602081101561050957600080fd5b8101908080359060200190929190505050610e65565b604051808473ffffffffffffffffffffffffffffffffffffffff1673ffffffffffffffffffffffffffffffffffffffff1681526020018060200180602001838103835285818151815260200191508051906020019080838360005b8381101561059557808201518184015260208101905061057a565b50505050905090810190601f1680156105c25780820380516001836020036101000a031916815260200191505b50838103825284818151815260200191508051906020019080838360005b838110156105fb5780820151818401526020810190506105e0565b50505050905090810190601f1680156106285780820380516001836020036101000a031916815260200191505b509550505050505060405180910390f35b34801561064557600080fd5b506106726004803603602081101561065c57600080fd5b8101908080359060200190929190505050611070565b604051808273ffffffffffffffffffffffffffffffffffffffff1673ffffffffffffffffffffffffffffffffffffffff16815260200191505060405180910390f35b3480156106c057600080fd5b506106ed600480360360208110156106d757600080fd5b810190808035906020019092919050505061111e565b005b3480156106fb57600080fd5b506107286004803603602081101561071257600080fd5b8101908080359060200190929190505050611331565b6040518080602001828103825283818151815260200191508051906020019080838360005b8381101561076857808201518184015260208101905061074d565b50505050905090810190601f1680156107955780820380516001836020036101000a031916815260200191505b509250505060405180910390f35b600081606481106107b057fe5b016000915054906101000a900473ffffffffffffffffffffffffffffffffffffffff1681565b6000803411610830576040517f08c379a00000000000000000000000000000000000000000000000000000000081526004018080602001828103825260288152602001806115016028913960400191505060405180910390fd5b60008090505b6064811015610a9057600073ffffffffffffffffffffffffffffffffffffffff166000826064811061086457fe5b0160009054906101000a900473ffffffffffffffffffffffffffffffffffffffff1673ffffffffffffffffffffffffffffffffffffffff161415610a835733600082606481106108b057fe5b0160006101000a81548173ffffffffffffffffffffffffffffffffffffffff021916908373ffffffffffffffffffffffffffffffffffffffff16021790555083606482606481106108fd57fe5b0190805190602001906109119291906113e1565b508260c8826064811061092057fe5b0190805190602001906109349291906113e1565b507f33df09c09a14745308cec739819fb6a421f1e9436959c3546cbd92b238c9bf47818585336040518085815260200180602001806020018473ffffffffffffffffffffffffffffffffffffffff1673ffffffffffffffffffffffffffffffffffffffff168152602001838103835286818151815260200191508051906020019080838360005b838110156109d65780820151818401526020810190506109bb565b50505050905090810190601f168015610a035780820380516001836020036101000a031916815260200191505b50838103825285818151815260200191508051906020019080838360005b83811015610a3c578082015181840152602081019050610a21565b50505050905090810190601f168015610a695780820380516001836020036101000a031916815260200191505b50965050505050505060405180910390a180915050610ae2565b8080600101915050610836565b506040517f08c379a00000000000000000000000000000000000000000000000000000000081526004018080602001828103825260258152602001806114aa6025913960400191505060405180910390fd5b92915050565b60648160648110610af557fe5b016000915090508054600181600116156101000203166002900480601f016020809104026020016040519081016040528092919081815260200182805460018160011615610100020316600290048015610b905780601f10610b6557610100808354040283529160200191610b90565b820191906000526020600020905b815481529060010190602001808311610b7357829003601f168201915b505050505081565b606060648210610c10576040517f08c379a00000000000000000000000000000000000000000000000000000000081526004018080602001828103825260138152602001807f496e76616c696420636f75726965722049442e0000000000000000000000000081525060200191505060405180910390fd5b60c88260648110610c1d57fe5b018054600181600116156101000203166002900480601f016020809104026020016040519081016040528092919081815260200182805460018160011615610100020316600290048015610cb25780601f10610c8757610100808354040283529160200191610cb2565b820191906000526020600020905b815481529060010190602001808311610c9557829003601f168201915b50505050509050919050565b606060648210610d36576040517f08c379a00000000000000000000000000000000000000000000000000000000081526004018080602001828103825260138152602001807f496e76616c696420636f75726965722049442e0000000000000000000000000081525060200191505060405180910390fd5b60648260648110610d4357fe5b018054600181600116156101000203166002900480601f016020809104026020016040519081016040528092919081815260200182805460018160011615610100020316600290048015610dd85780601f10610dad57610100808354040283529160200191610dd8565b820191906000526020600020905b815481529060010190602001808311610dbb57829003601f168201915b50505050509050919050565b610dec611461565b6000606480602002604051908101604052809291908260648015610e5b576020028201915b8160009054906101000a900473ffffffffffffffffffffffffffffffffffffffff1673ffffffffffffffffffffffffffffffffffffffff1681526020019060010190808311610e11575b5050505050905090565b600060608060648410610ee0576040517f08c379a00000000000000000000000000000000000000000000000000000000081526004018080602001828103825260138152602001807f496e76616c696420636f75726965722049442e0000000000000000000000000081525060200191505060405180910390fd5b60008460648110610eed57fe5b0160009054906101000a900473ffffffffffffffffffffffffffffffffffffffff1660648560648110610f1c57fe5b0160c88660648110610f2a57fe5b01818054600181600116156101000203166002900480601f016020809104026020016040519081016040528092919081815260200182805460018160011615610100020316600290048015610fc05780601f10610f9557610100808354040283529160200191610fc0565b820191906000526020600020905b815481529060010190602001808311610fa357829003601f168201915b50505050509150808054600181600116156101000203166002900480601f01602080910402602001604051908101604052809291908181526020018280546001816001161561010002031660029004801561105c5780601f106110315761010080835404028352916020019161105c565b820191906000526020600020905b81548152906001019060200180831161103f57829003601f168201915b505050505090509250925092509193909250565b6000606482106110e8576040517f08c379a00000000000000000000000000000000000000000000000000000000081526004018080602001828103825260138152602001807f496e76616c696420636f75726965722049442e0000000000000000000000000081525060200191505060405180910390fd5b600082606481106110f557fe5b0160009054906101000a900473ffffffffffffffffffffffffffffffffffffffff169050919050565b60648110611194576040517f08c379a00000000000000000000000000000000000000000000000000000000081526004018080602001828103825260138152602001807f496e76616c696420636f75726965722049442e0000000000000000000000000081525060200191505060405180910390fd5b3373ffffffffffffffffffffffffffffffffffffffff16600082606481106111b857fe5b0160009054906101000a900473ffffffffffffffffffffffffffffffffffffffff1673ffffffffffffffffffffffffffffffffffffffff1614611246576040517f08c379a00000000000000000000000000000000000000000000000000000000081526004018080602001828103825260328152602001806114cf6032913960400191505060405180910390fd5b600080826064811061125457fe5b0160006101000a81548173ffffffffffffffffffffffffffffffffffffffff021916908373ffffffffffffffffffffffffffffffffffffffff16021790555060405180602001604052806000815250606482606481106112b057fe5b0190805190602001906112c49291906113e1565b506040518060200160405280600081525060c882606481106112e257fe5b0190805190602001906112f69291906113e1565b507fdfba789582609e025ecfd77dc9a5be932441a85eb2b73086d15def212a5b80f5816040518082815260200191505060405180910390a150565b60c8816064811061133e57fe5b016000915090508054600181600116156101000203166002900480601f0160208091040260200160405190810160405280929190818152602001828054600181600116156101000203166002900480156113d95780601f106113ae576101008083540402835291602001916113d9565b820191906000526020600020905b8154815290600101906020018083116113bc57829003601f168201915b505050505081565b828054600181600116156101000203166002900490600052602060002090601f016020900481019282601f1061142257805160ff1916838001178555611450565b82800160010185558215611450579182015b8281111561144f578251825591602001919060010190611434565b5b50905061145d9190611484565b5090565b60405180610c800160405280606490602082028038833980820191505090505090565b6114a691905b808211156114a257600081600090555060010161148a565b5090565b9056fe4e6f20737061636520617661696c61626c6520666f72206d6f726520636f7572696572732e596f75206d75737420626520746865206f776e6572206f662074686520636f757269657220746f2072656d6f76652069742e596f75206d7573742073656e6420736f6d652045544820746f20616464206120636f75726965722ea265627a7a723158207b1060dff8637e2161856af053c629c1bd30dc2ce372dbb1842f82417ce3323464736f6c63430005100032",
  "source": "pragma solidity ^0.5.16;\n\ncontract CourierManager {\n    address[100] public owners;\n    string[100] public titles;\n    string[100] public descriptions;\n\n    event CourierAdded(uint256 id, string title, string description, address courier);\n    event CourierRemoved(uint256 id);\n\n    // Add courier with title, description, and value\n    function addCourier(string memory _title, string memory _description ) public payable returns (uint256) {\n        require(msg.value > 0, \"You must send some ETH to add a courier.\");\n\n        for (uint256 i = 0; i < owners.length; i++) {\n            if (owners[i] == address(0)) { // Corrected comparison operator\n                owners[i] = msg.sender; // Store sender address\n                titles[i] = _title; // Store title\n                descriptions[i] = _description; // Store description\n                emit CourierAdded(i, _title, _description, msg.sender); // Emit event with the value field\n                return i; // Return the index of the added courier\n            }\n        }\n        revert(\"No space available for more couriers.\"); // Revert if array is full\n    }\n\n    // Remove courier by ID\n    function removeCourier(uint256 _id) public {\n        require(_id < owners.length, \"Invalid courier ID.\"); // Check if ID is valid\n        require(owners[_id] == msg.sender, \"You must be the owner of the courier to remove it.\");\n\n        owners[_id] = address(0); // Reset the owner's address\n        titles[_id] = \"\"; // Reset the title\n        descriptions[_id] = \"\"; // Reset the description\n\n        emit CourierRemoved(_id); // Emit event for removal\n    }\n\n    // Getter functions\n    function getAddresses() public view returns (address[100] memory) {\n        return owners;\n    }\n\n    function getAddress(uint256 _id) public view returns (address) {\n        require(_id < owners.length, \"Invalid courier ID.\"); // Check if ID is valid\n        return owners[_id];\n    }\n\n    function getTitle(uint256 _id) public view returns (string memory) {\n        require(_id < owners.length, \"Invalid courier ID.\"); // Check if ID is valid\n        return titles[_id];\n    }\n\n    function getDescription(uint256 _id) public view returns (string memory) {\n        require(_id < owners.length, \"Invalid courier ID.\"); // Check if ID is valid\n        return descriptions[_id];\n    }\n\n    // Retrieve full courier information including value\n    function getCourier(uint256 _id) public view returns (address, string memory, string memory) {\n        require(_id < owners.length, \"Invalid courier ID.\"); // Check if ID is valid\n        return (owners[_id], titles[_id], descriptions[_id]);\n    }\n}\n",
  "sourcePath": "C:\\Users\\Ibrar Ali\\Downloads\\CryptoCourier-main\\contracts\\CourierManager.sol",
  "compiler": {
    "name": "solc",
    "version": "0.5.16+commit.9c3226ce.Emscripten.clang"
  },
  "schemaVersion": "3.4.16",
  "updatedAt": "2024-10-02T15:04:34.797Z",
  "networkType": "ethereum",
  "devdoc": {
    "methods": {}
  },
  "userdoc": {
    "methods": {}
  }
}