{
  "contractName": "CourierManager",
  "abi": [
    {
      "anonymous": false,
      "inputs": [
        {
          "indexed": false,
          "internalType": "uint256",
          "name": "id",
          "type": "uint256"
        },
        {
          "indexed": false,
          "internalType": "string",
          "name": "title",
          "type": "string"
        },
        {
          "indexed": false,
          "internalType": "string",
          "name": "description",
          "type": "string"
        },
        {
          "indexed": false,
          "internalType": "address",
          "name": "courier",
          "type": "address"
        }
      ],
      "name": "CourierAdded",
      "type": "event"
    },
    {
      "anonymous": false,
      "inputs": [
        {
          "indexed": false,
          "internalType": "uint256",
          "name": "id",
          "type": "uint256"
        }
      ],
      "name": "CourierRemoved",
      "type": "event"
    },
    {
      "constant": true,
      "inputs": [
        {
          "internalType": "uint256",
          "name": "",
          "type": "uint256"
        }
      ],
      "name": "descriptions",
      "outputs": [
        {
          "internalType": "string",
          "name": "",
          "type": "string"
        }
      ],
      "payable": false,
      "stateMutability": "view",
      "type": "function"
    },
    {
      "constant": true,
      "inputs": [
        {
          "internalType": "uint256",
          "name": "",
          "type": "uint256"
        }
      ],
      "name": "owners",
      "outputs": [
        {
          "internalType": "address",
          "name": "",
          "type": "address"
        }
      ],
      "payable": false,
      "stateMutability": "view",
      "type": "function"
    },
    {
      "constant": true,
      "inputs": [
        {
          "internalType": "uint256",
          "name": "",
          "type": "uint256"
        }
      ],
      "name": "titles",
      "outputs": [
        {
          "internalType": "string",
          "name": "",
          "type": "string"
        }
      ],
      "payable": false,
      "stateMutability": "view",
      "type": "function"
    },
    {
      "constant": false,
      "inputs": [
        {
          "internalType": "string",
          "name": "_title",
          "type": "string"
        },
        {
          "internalType": "string",
          "name": "_description",
          "type": "string"
        }
      ],
      "name": "addCourier",
      "outputs": [
        {
          "internalType": "uint256",
          "name": "",
          "type": "uint256"
        }
      ],
      "payable": true,
      "stateMutability": "payable",
      "type": "function"
    },
    {
      "constant": false,
      "inputs": [
        {
          "internalType": "uint256",
          "name": "_id",
          "type": "uint256"
        }
      ],
      "name": "removeCourier",
      "outputs": [],
      "payable": false,
      "stateMutability": "nonpayable",
      "type": "function"
    },
    {
      "constant": true,
      "inputs": [],
      "name": "getAddresses",
      "outputs": [
        {
          "internalType": "address[100]",
          "name": "",
          "type": "address[100]"
        }
      ],
      "payable": false,
      "stateMutability": "view",
      "type": "function"
    },
    {
      "constant": true,
      "inputs": [
        {
          "internalType": "uint256",
          "name": "_id",
          "type": "uint256"
        }
      ],
      "name": "getAdress",
      "outputs": [
        {
          "internalType": "address",
          "name": "",
          "type": "address"
        }
      ],
      "payable": false,
      "stateMutability": "view",
      "type": "function"
    },
    {
      "constant": true,
      "inputs": [
        {
          "internalType": "uint256",
          "name": "_id",
          "type": "uint256"
        }
      ],
      "name": "getTitle",
      "outputs": [
        {
          "internalType": "string",
          "name": "",
          "type": "string"
        }
      ],
      "payable": false,
      "stateMutability": "view",
      "type": "function"
    },
    {
      "constant": true,
      "inputs": [
        {
          "internalType": "uint256",
          "name": "_id",
          "type": "uint256"
        }
      ],
      "name": "getDescription",
      "outputs": [
        {
          "internalType": "string",
          "name": "",
          "type": "string"
        }
      ],
      "payable": false,
      "stateMutability": "view",
      "type": "function"
    },
    {
      "constant": true,
      "inputs": [
        {
          "internalType": "uint256",
          "name": "_id",
          "type": "uint256"
        }
      ],
      "name": "getCourier",
      "outputs": [
        {
          "internalType": "address",
          "name": "",
          "type": "address"
        },
        {
          "internalType": "string",
          "name": "",
          "type": "string"
        },
        {
          "internalType": "string",
          "name": "",
          "type": "string"
        }
      ],
      "payable": false,
      "stateMutability": "view",
      "type": "function"
    }
  ],
  "bytecode": "0x608060405234801561001057600080fd5b506112aa806100206000396000f3fe6080604052600436106100915760003560e01c8063a39fac1211610059578063a39fac1214610493578063a3ea706d146104e6578063aed4526514610639578063e39febfd146106b4578063e6f859e7146106ef57610091565b8063025e7c271461009657806308094046146101115780632cda1bf7146102775780634925ec551461032b578063929a79b1146103df575b600080fd5b3480156100a257600080fd5b506100cf600480360360208110156100b957600080fd5b81019080803590602001909291905050506107a3565b604051808273ffffffffffffffffffffffffffffffffffffffff1673ffffffffffffffffffffffffffffffffffffffff16815260200191505060405180910390f35b6102616004803603604081101561012757600080fd5b810190808035906020019064010000000081111561014457600080fd5b82018360208201111561015657600080fd5b8035906020019184600183028401116401000000008311171561017857600080fd5b91908080601f016020809104026020016040519081016040528093929190818152602001838380828437600081840152601f19601f820116905080830192505050505050509192919290803590602001906401000000008111156101db57600080fd5b8201836020820111156101ed57600080fd5b8035906020019184600183028401116401000000008311171561020f57600080fd5b91908080601f016020809104026020016040519081016040528093929190818152602001838380828437600081840152601f19601f8201169050808301925050505050505091929192905050506107d6565b6040518082815260200191505060405180910390f35b34801561028357600080fd5b506102b06004803603602081101561029a57600080fd5b8101908080359060200190929190505050610ae8565b6040518080602001828103825283818151815260200191508051906020019080838360005b838110156102f05780820151818401526020810190506102d5565b50505050905090810190601f16801561031d5780820380516001836020036101000a031916815260200191505b509250505060405180910390f35b34801561033757600080fd5b506103646004803603602081101561034e57600080fd5b8101908080359060200190929190505050610b98565b6040518080602001828103825283818151815260200191508051906020019080838360005b838110156103a4578082015181840152602081019050610389565b50505050905090810190601f1680156103d15780820380516001836020036101000a031916815260200191505b509250505060405180910390f35b3480156103eb57600080fd5b506104186004803603602081101561040257600080fd5b8101908080359060200190929190505050610c48565b6040518080602001828103825283818151815260200191508051906020019080838360005b8381101561045857808201518184015260208101905061043d565b50505050905090810190601f1680156104855780820380516001836020036101000a031916815260200191505b509250505060405180910390f35b34801561049f57600080fd5b506104a8610cf8565b6040518082606460200280838360005b838110156104d35780820151818401526020810190506104b8565b5050505090500191505060405180910390f35b3480156104f257600080fd5b5061051f6004803603602081101561050957600080fd5b8101908080359060200190929190505050610d79565b604051808473ffffffffffffffffffffffffffffffffffffffff1673ffffffffffffffffffffffffffffffffffffffff1681526020018060200180602001838103835285818151815260200191508051906020019080838360005b8381101561059557808201518184015260208101905061057a565b50505050905090810190601f1680156105c25780820380516001836020036101000a031916815260200191505b50838103825284818151815260200191508051906020019080838360005b838110156105fb5780820151818401526020810190506105e0565b50505050905090810190601f1680156106285780820380516001836020036101000a031916815260200191505b509550505050505060405180910390f35b34801561064557600080fd5b506106726004803603602081101561065c57600080fd5b8101908080359060200190929190505050610f0e565b604051808273ffffffffffffffffffffffffffffffffffffffff1673ffffffffffffffffffffffffffffffffffffffff16815260200191505060405180910390f35b3480156106c057600080fd5b506106ed600480360360208110156106d757600080fd5b8101908080359060200190929190505050610f45565b005b3480156106fb57600080fd5b506107286004803603602081101561071257600080fd5b810190808035906020019092919050505061107e565b6040518080602001828103825283818151815260200191508051906020019080838360005b8381101561076857808201518184015260208101905061074d565b50505050905090810190601f1680156107955780820380516001836020036101000a031916815260200191505b509250505060405180910390f35b600081606481106107b057fe5b016000915054906101000a900473ffffffffffffffffffffffffffffffffffffffff1681565b6000803411610830576040517f08c379a000000000000000000000000000000000000000000000000000000000815260040180806020018281038252602881526020018061124e6028913960400191505060405180910390fd5b60008090505b6064811015610a9057600073ffffffffffffffffffffffffffffffffffffffff166000826064811061086457fe5b0160009054906101000a900473ffffffffffffffffffffffffffffffffffffffff1673ffffffffffffffffffffffffffffffffffffffff161415610a835733600082606481106108b057fe5b0160006101000a81548173ffffffffffffffffffffffffffffffffffffffff021916908373ffffffffffffffffffffffffffffffffffffffff16021790555083606482606481106108fd57fe5b01908051906020019061091192919061112e565b508260c8826064811061092057fe5b01908051906020019061093492919061112e565b507f33df09c09a14745308cec739819fb6a421f1e9436959c3546cbd92b238c9bf47818585336040518085815260200180602001806020018473ffffffffffffffffffffffffffffffffffffffff1673ffffffffffffffffffffffffffffffffffffffff168152602001838103835286818151815260200191508051906020019080838360005b838110156109d65780820151818401526020810190506109bb565b50505050905090810190601f168015610a035780820380516001836020036101000a031916815260200191505b50838103825285818151815260200191508051906020019080838360005b83811015610a3c578082015181840152602081019050610a21565b50505050905090810190601f168015610a695780820380516001836020036101000a031916815260200191505b50965050505050505060405180910390a180915050610ae2565b8080600101915050610836565b506040517f08c379a00000000000000000000000000000000000000000000000000000000081526004018080602001828103825260258152602001806111f76025913960400191505060405180910390fd5b92915050565b60648160648110610af557fe5b016000915090508054600181600116156101000203166002900480601f016020809104026020016040519081016040528092919081815260200182805460018160011615610100020316600290048015610b905780601f10610b6557610100808354040283529160200191610b90565b820191906000526020600020905b815481529060010190602001808311610b7357829003601f168201915b505050505081565b606060c88260648110610ba757fe5b018054600181600116156101000203166002900480601f016020809104026020016040519081016040528092919081815260200182805460018160011615610100020316600290048015610c3c5780601f10610c1157610100808354040283529160200191610c3c565b820191906000526020600020905b815481529060010190602001808311610c1f57829003601f168201915b50505050509050919050565b606060648260648110610c5757fe5b018054600181600116156101000203166002900480601f016020809104026020016040519081016040528092919081815260200182805460018160011615610100020316600290048015610cec5780601f10610cc157610100808354040283529160200191610cec565b820191906000526020600020905b815481529060010190602001808311610ccf57829003601f168201915b50505050509050919050565b610d006111ae565b6000606480602002604051908101604052809291908260648015610d6f576020028201915b8160009054906101000a900473ffffffffffffffffffffffffffffffffffffffff1673ffffffffffffffffffffffffffffffffffffffff1681526020019060010190808311610d25575b5050505050905090565b600060608060008460648110610d8b57fe5b0160009054906101000a900473ffffffffffffffffffffffffffffffffffffffff1660648560648110610dba57fe5b0160c88660648110610dc857fe5b01818054600181600116156101000203166002900480601f016020809104026020016040519081016040528092919081815260200182805460018160011615610100020316600290048015610e5e5780601f10610e3357610100808354040283529160200191610e5e565b820191906000526020600020905b815481529060010190602001808311610e4157829003601f168201915b50505050509150808054600181600116156101000203166002900480601f016020809104026020016040519081016040528092919081815260200182805460018160011615610100020316600290048015610efa5780601f10610ecf57610100808354040283529160200191610efa565b820191906000526020600020905b815481529060010190602001808311610edd57829003601f168201915b505050505090509250925092509193909250565b6000808260648110610f1c57fe5b0160009054906101000a900473ffffffffffffffffffffffffffffffffffffffff169050919050565b3373ffffffffffffffffffffffffffffffffffffffff1660008260648110610f6957fe5b0160009054906101000a900473ffffffffffffffffffffffffffffffffffffffff1673ffffffffffffffffffffffffffffffffffffffff1614610ff7576040517f08c379a000000000000000000000000000000000000000000000000000000000815260040180806020018281038252603281526020018061121c6032913960400191505060405180910390fd5b600080826064811061100557fe5b0160006101000a81548173ffffffffffffffffffffffffffffffffffffffff021916908373ffffffffffffffffffffffffffffffffffffffff1602179055507fdfba789582609e025ecfd77dc9a5be932441a85eb2b73086d15def212a5b80f5816040518082815260200191505060405180910390a150565b60c8816064811061108b57fe5b016000915090508054600181600116156101000203166002900480601f0160208091040260200160405190810160405280929190818152602001828054600181600116156101000203166002900480156111265780601f106110fb57610100808354040283529160200191611126565b820191906000526020600020905b81548152906001019060200180831161110957829003601f168201915b505050505081565b828054600181600116156101000203166002900490600052602060002090601f016020900481019282601f1061116f57805160ff191683800117855561119d565b8280016001018555821561119d579182015b8281111561119c578251825591602001919060010190611181565b5b5090506111aa91906111d1565b5090565b60405180610c800160405280606490602082028038833980820191505090505090565b6111f391905b808211156111ef5760008160009055506001016111d7565b5090565b9056fe4e6f20737061636520617661696c61626c6520666f72206d6f726520636f7572696572732e596f75206d75737420626520746865206f776e6572206f662074686520636f757269657220746f2072656d6f76652069742e596f75206d7573742073656e6420736f6d652045544820746f20616464206120636f75726965722ea265627a7a7231582093818c8842395f04cb9fb0275e86954bd355536294f832c9658c743ae62c850364736f6c63430005100032",
  "source": "// SPDX-License-Identifier: MIT\npragma solidity ^0.5.16;\n\ncontract CourierManager {\n\n    address[100] public owners;\n    string[100] public titles;\n    string[100] public descriptions;\n\n\n    event CourierAdded(uint256 id, string title, string description, address courier);\n    event CourierRemoved(uint256 id);\n\nfunction addCourier(string memory _title, string memory _description) public payable returns (uint256) {\n    require(msg.value > 0, \"You must send some ETH to add a courier.\");\n\n    for (uint256 i = 0; i < owners.length; i++) {\n        if (owners[i] == address(0)) { // Check for unoccupied slot\n            owners[i] = msg.sender; // Store sender address\n            titles[i] = _title; // Store title\n            descriptions[i] = _description; // Store description\n            emit CourierAdded(i, _title, _description, msg.sender); // Emit event\n            return i; // Return the index of the added courier\n        }\n    }\n    revert(\"No space available for more couriers.\"); // Add revert statement if full\n}\n\n\n    function removeCourier(uint256 _id) public {\n        require(owners[_id] == msg.sender, \"You must be the owner of the courier to remove it.\");\n        owners[_id] = address(0);\n        emit CourierRemoved(_id);\n    }\n\n    function getAddresses() public view returns (address[100] memory) {\n        return owners;\n    }\n\n    function getAdress(uint256 _id) public view returns (address) {\n        return owners[_id];\n    }\n\n    function getTitle(uint256 _id) public view returns (string memory) {\n        return titles[_id];\n    }\n\n    function getDescription(uint256 _id) public view returns (string memory) {\n        return descriptions[_id];\n    }\n\n    function getCourier(uint256 _id) public view returns (address, string memory, string memory) {\n        return (owners[_id], titles[_id], descriptions[_id]);\n    }\n}",
  "sourcePath": "C:\\Users\\Ibrar Ali\\Downloads\\CryptoCourier-main\\contracts\\CourierManager.sol",
  "compiler": {
    "name": "solc",
    "version": "0.5.16+commit.9c3226ce.Emscripten.clang"
  },
  "schemaVersion": "3.4.16",
  "updatedAt": "2024-10-02T09:27:15.223Z",
  "devdoc": {
    "methods": {}
  },
  "userdoc": {
    "methods": {}
  }
}